{
  "_format": "hh-sol-artifact-1",
  "contractName": "NadrunnerToken",
  "sourceName": "contracts/NadrunnerToken.sol",
  "abi": [
    {
      "inputs": [],
      "stateMutability": "nonpayable",
      "type": "constructor"
    },
    {
      "inputs": [],
      "name": "ECDSAInvalidSignature",
      "type": "error"
    },
    {
      "inputs": [
        {
          "internalType": "uint256",
          "name": "length",
          "type": "uint256"
        }
      ],
      "name": "ECDSAInvalidSignatureLength",
      "type": "error"
    },
    {
      "inputs": [
        {
          "internalType": "bytes32",
          "name": "s",
          "type": "bytes32"
        }
      ],
      "name": "ECDSAInvalidSignatureS",
      "type": "error"
    },
    {
      "inputs": [
        {
          "internalType": "address",
          "name": "spender",
          "type": "address"
        },
        {
          "internalType": "uint256",
          "name": "allowance",
          "type": "uint256"
        },
        {
          "internalType": "uint256",
          "name": "needed",
          "type": "uint256"
        }
      ],
      "name": "ERC20InsufficientAllowance",
      "type": "error"
    },
    {
      "inputs": [
        {
          "internalType": "address",
          "name": "sender",
          "type": "address"
        },
        {
          "internalType": "uint256",
          "name": "balance",
          "type": "uint256"
        },
        {
          "internalType": "uint256",
          "name": "needed",
          "type": "uint256"
        }
      ],
      "name": "ERC20InsufficientBalance",
      "type": "error"
    },
    {
      "inputs": [
        {
          "internalType": "address",
          "name": "approver",
          "type": "address"
        }
      ],
      "name": "ERC20InvalidApprover",
      "type": "error"
    },
    {
      "inputs": [
        {
          "internalType": "address",
          "name": "receiver",
          "type": "address"
        }
      ],
      "name": "ERC20InvalidReceiver",
      "type": "error"
    },
    {
      "inputs": [
        {
          "internalType": "address",
          "name": "sender",
          "type": "address"
        }
      ],
      "name": "ERC20InvalidSender",
      "type": "error"
    },
    {
      "inputs": [
        {
          "internalType": "address",
          "name": "spender",
          "type": "address"
        }
      ],
      "name": "ERC20InvalidSpender",
      "type": "error"
    },
    {
      "inputs": [
        {
          "internalType": "address",
          "name": "owner",
          "type": "address"
        }
      ],
      "name": "OwnableInvalidOwner",
      "type": "error"
    },
    {
      "inputs": [
        {
          "internalType": "address",
          "name": "account",
          "type": "address"
        }
      ],
      "name": "OwnableUnauthorizedAccount",
      "type": "error"
    },
    {
      "anonymous": false,
      "inputs": [
        {
          "indexed": true,
          "internalType": "address",
          "name": "owner",
          "type": "address"
        },
        {
          "indexed": true,
          "internalType": "address",
          "name": "spender",
          "type": "address"
        },
        {
          "indexed": false,
          "internalType": "uint256",
          "name": "value",
          "type": "uint256"
        }
      ],
      "name": "Approval",
      "type": "event"
    },
    {
      "anonymous": false,
      "inputs": [
        {
          "indexed": true,
          "internalType": "address",
          "name": "previousOwner",
          "type": "address"
        },
        {
          "indexed": true,
          "internalType": "address",
          "name": "newOwner",
          "type": "address"
        }
      ],
      "name": "OwnershipTransferred",
      "type": "event"
    },
    {
      "anonymous": false,
      "inputs": [
        {
          "indexed": true,
          "internalType": "address",
          "name": "oldSigner",
          "type": "address"
        },
        {
          "indexed": true,
          "internalType": "address",
          "name": "newSigner",
          "type": "address"
        }
      ],
      "name": "SignerUpdated",
      "type": "event"
    },
    {
      "anonymous": false,
      "inputs": [
        {
          "indexed": true,
          "internalType": "address",
          "name": "from",
          "type": "address"
        },
        {
          "indexed": true,
          "internalType": "address",
          "name": "to",
          "type": "address"
        },
        {
          "indexed": false,
          "internalType": "uint256",
          "name": "value",
          "type": "uint256"
        }
      ],
      "name": "Transfer",
      "type": "event"
    },
    {
      "inputs": [],
      "name": "MAX_GAME_MINT",
      "outputs": [
        {
          "internalType": "uint256",
          "name": "",
          "type": "uint256"
        }
      ],
      "stateMutability": "view",
      "type": "function"
    },
    {
      "inputs": [
        {
          "internalType": "address",
          "name": "owner",
          "type": "address"
        },
        {
          "internalType": "address",
          "name": "spender",
          "type": "address"
        }
      ],
      "name": "allowance",
      "outputs": [
        {
          "internalType": "uint256",
          "name": "",
          "type": "uint256"
        }
      ],
      "stateMutability": "view",
      "type": "function"
    },
    {
      "inputs": [
        {
          "internalType": "address",
          "name": "spender",
          "type": "address"
        },
        {
          "internalType": "uint256",
          "name": "value",
          "type": "uint256"
        }
      ],
      "name": "approve",
      "outputs": [
        {
          "internalType": "bool",
          "name": "",
          "type": "bool"
        }
      ],
      "stateMutability": "nonpayable",
      "type": "function"
    },
    {
      "inputs": [
        {
          "internalType": "address",
          "name": "account",
          "type": "address"
        }
      ],
      "name": "balanceOf",
      "outputs": [
        {
          "internalType": "uint256",
          "name": "",
          "type": "uint256"
        }
      ],
      "stateMutability": "view",
      "type": "function"
    },
    {
      "inputs": [],
      "name": "decimals",
      "outputs": [
        {
          "internalType": "uint8",
          "name": "",
          "type": "uint8"
        }
      ],
      "stateMutability": "view",
      "type": "function"
    },
    {
      "inputs": [
        {
          "internalType": "address",
          "name": "to",
          "type": "address"
        },
        {
          "internalType": "uint256",
          "name": "amount",
          "type": "uint256"
        }
      ],
      "name": "mint",
      "outputs": [],
      "stateMutability": "nonpayable",
      "type": "function"
    },
    {
      "inputs": [
        {
          "internalType": "uint256",
          "name": "score",
          "type": "uint256"
        },
        {
          "internalType": "bytes",
          "name": "signature",
          "type": "bytes"
        }
      ],
      "name": "mintGameScore",
      "outputs": [],
      "stateMutability": "nonpayable",
      "type": "function"
    },
    {
      "inputs": [],
      "name": "name",
      "outputs": [
        {
          "internalType": "string",
          "name": "",
          "type": "string"
        }
      ],
      "stateMutability": "view",
      "type": "function"
    },
    {
      "inputs": [],
      "name": "owner",
      "outputs": [
        {
          "internalType": "address",
          "name": "",
          "type": "address"
        }
      ],
      "stateMutability": "view",
      "type": "function"
    },
    {
      "inputs": [],
      "name": "renounceOwnership",
      "outputs": [],
      "stateMutability": "nonpayable",
      "type": "function"
    },
    {
      "inputs": [
        {
          "internalType": "address",
          "name": "newSigner",
          "type": "address"
        }
      ],
      "name": "setSigner",
      "outputs": [],
      "stateMutability": "nonpayable",
      "type": "function"
    },
    {
      "inputs": [],
      "name": "signer",
      "outputs": [
        {
          "internalType": "address",
          "name": "",
          "type": "address"
        }
      ],
      "stateMutability": "view",
      "type": "function"
    },
    {
      "inputs": [],
      "name": "symbol",
      "outputs": [
        {
          "internalType": "string",
          "name": "",
          "type": "string"
        }
      ],
      "stateMutability": "view",
      "type": "function"
    },
    {
      "inputs": [],
      "name": "totalSupply",
      "outputs": [
        {
          "internalType": "uint256",
          "name": "",
          "type": "uint256"
        }
      ],
      "stateMutability": "view",
      "type": "function"
    },
    {
      "inputs": [
        {
          "internalType": "address",
          "name": "to",
          "type": "address"
        },
        {
          "internalType": "uint256",
          "name": "value",
          "type": "uint256"
        }
      ],
      "name": "transfer",
      "outputs": [
        {
          "internalType": "bool",
          "name": "",
          "type": "bool"
        }
      ],
      "stateMutability": "nonpayable",
      "type": "function"
    },
    {
      "inputs": [
        {
          "internalType": "address",
          "name": "from",
          "type": "address"
        },
        {
          "internalType": "address",
          "name": "to",
          "type": "address"
        },
        {
          "internalType": "uint256",
          "name": "value",
          "type": "uint256"
        }
      ],
      "name": "transferFrom",
      "outputs": [
        {
          "internalType": "bool",
          "name": "",
          "type": "bool"
        }
      ],
      "stateMutability": "nonpayable",
      "type": "function"
    },
    {
      "inputs": [
        {
          "internalType": "address",
          "name": "newOwner",
          "type": "address"
        }
      ],
      "name": "transferOwnership",
      "outputs": [],
      "stateMutability": "nonpayable",
      "type": "function"
    },
    {
      "inputs": [
        {
          "internalType": "bytes32",
          "name": "",
          "type": "bytes32"
        }
      ],
      "name": "usedSignatures",
      "outputs": [
        {
          "internalType": "bool",
          "name": "",
          "type": "bool"
        }
      ],
      "stateMutability": "view",
      "type": "function"
    }
  ],
  "bytecode": "0x60806040523480156200001157600080fd5b5033604051806040016040528060098152602001682730b2393ab73732b960b91b815250604051806040016040528060048152602001632720a22960e11b8152508160039081620000639190620001bf565b506004620000728282620001bf565b5050506001600160a01b038116620000a457604051631e4fbdf760e01b81526000600482015260240160405180910390fd5b620000af81620000c8565b50600680546001600160a01b031916331790556200028b565b600580546001600160a01b038381166001600160a01b0319831681179093556040519116919082907f8be0079c531659141344cd1fd0a4f28419497f9722a3daafe3b4186f6b6457e090600090a35050565b634e487b7160e01b600052604160045260246000fd5b600181811c908216806200014557607f821691505b6020821081036200016657634e487b7160e01b600052602260045260246000fd5b50919050565b601f821115620001ba57600081815260208120601f850160051c81016020861015620001955750805b601f850160051c820191505b81811015620001b657828155600101620001a1565b5050505b505050565b81516001600160401b03811115620001db57620001db6200011a565b620001f381620001ec845462000130565b846200016c565b602080601f8311600181146200022b5760008415620002125750858301515b600019600386901b1c1916600185901b178555620001b6565b600085815260208120601f198616915b828110156200025c578886015182559484019460019091019084016200023b565b50858210156200027b5787850151600019600388901b60f8161c191681555b5050505050600190811b01905550565b610e9f806200029b6000396000f3fe608060405234801561001057600080fd5b50600436106101165760003560e01c806370a08231116100a2578063a9059cbb11610071578063a9059cbb14610240578063b4b7933614610253578063dd62ed3e14610264578063f2fde38b1461029d578063f978fd61146102b057600080fd5b806370a08231146101f6578063715018a61461021f5780638da5cb5b1461022757806395d89b411461023857600080fd5b8063238ac933116100e9578063238ac9331461018357806323b872dd146101ae578063313ce567146101c157806340c10f19146101d05780636c19e783146101e357600080fd5b806306fdde031461011b578063095ea7b31461013957806318160ddd1461015c5780632370b1b71461016e575b600080fd5b6101236102d3565b6040516101309190610be9565b60405180910390f35b61014c610147366004610c53565b610365565b6040519015158152602001610130565b6002545b604051908152602001610130565b61018161017c366004610c93565b61037f565b005b600654610196906001600160a01b031681565b6040516001600160a01b039091168152602001610130565b61014c6101bc366004610d4e565b6104f4565b60405160128152602001610130565b6101816101de366004610c53565b610518565b6101816101f1366004610d8a565b61052e565b610160610204366004610d8a565b6001600160a01b031660009081526020819052604090205490565b6101816105d7565b6005546001600160a01b0316610196565b6101236105eb565b61014c61024e366004610c53565b6105fa565b61016069021e19e0c9bab240000081565b610160610272366004610dac565b6001600160a01b03918216600090815260016020908152604080832093909416825291909152205490565b6101816102ab366004610d8a565b610608565b61014c6102be366004610ddf565b60076020526000908152604090205460ff1681565b6060600380546102e290610df8565b80601f016020809104026020016040519081016040528092919081815260200182805461030e90610df8565b801561035b5780601f106103305761010080835404028352916020019161035b565b820191906000526020600020905b81548152906001019060200180831161033e57829003601f168201915b5050505050905090565b600033610373818585610646565b60019150505b92915050565b69021e19e0c9bab24000008211156103e95760405162461bcd60e51b815260206004820152602260248201527f53636f72652065786365656473206d6178696d756d20616c6c6f776564206d696044820152611b9d60f21b60648201526084015b60405180910390fd5b6040516bffffffffffffffffffffffff193360601b166020820152603481018390524660548201526000906074016040516020818303038152906040528051906020012090506000610468827f19457468657265756d205369676e6564204d6573736167653a0a3332000000006000908152601c91909152603c902090565b905060006104768285610658565b6006549091506001600160a01b038083169116146104ca5760405162461bcd60e51b8152602060048201526011602482015270496e76616c6964207369676e617475726560781b60448201526064016103e0565b6000838152600760205260409020805460ff191660011790556104ed3386610682565b5050505050565b6000336105028582856106b8565b61050d858585610737565b506001949350505050565b610520610796565b61052a8282610682565b5050565b610536610796565b6001600160a01b0381166105855760405162461bcd60e51b8152602060048201526016602482015275496e76616c6964207369676e6572206164647265737360501b60448201526064016103e0565b600680546001600160a01b038381166001600160a01b0319831681179093556040519116919082907f2d025324f0a785e8c12d0a0d91a9caa49df4ef20ff87e0df7213a1d4f3157beb90600090a35050565b6105df610796565b6105e960006107c3565b565b6060600480546102e290610df8565b600033610373818585610737565b610610610796565b6001600160a01b03811661063a57604051631e4fbdf760e01b8152600060048201526024016103e0565b610643816107c3565b50565b6106538383836001610815565b505050565b60008060008061066886866108ea565b9250925092506106788282610937565b5090949350505050565b6001600160a01b0382166106ac5760405163ec442f0560e01b8152600060048201526024016103e0565b61052a600083836109f0565b6001600160a01b03838116600090815260016020908152604080832093861683529290522054600019811015610731578181101561072257604051637dc7a0d960e11b81526001600160a01b038416600482015260248101829052604481018390526064016103e0565b61073184848484036000610815565b50505050565b6001600160a01b03831661076157604051634b637e8f60e11b8152600060048201526024016103e0565b6001600160a01b03821661078b5760405163ec442f0560e01b8152600060048201526024016103e0565b6106538383836109f0565b6005546001600160a01b031633146105e95760405163118cdaa760e01b81523360048201526024016103e0565b600580546001600160a01b038381166001600160a01b0319831681179093556040519116919082907f8be0079c531659141344cd1fd0a4f28419497f9722a3daafe3b4186f6b6457e090600090a35050565b6001600160a01b03841661083f5760405163e602df0560e01b8152600060048201526024016103e0565b6001600160a01b03831661086957604051634a1406b160e11b8152600060048201526024016103e0565b6001600160a01b038085166000908152600160209081526040808320938716835292905220829055801561073157826001600160a01b0316846001600160a01b03167f8c5be1e5ebec7d5bd14f71427d1e84f3dd0314c0f7b2291e5b200ac8c7c3b925846040516108dc91815260200190565b60405180910390a350505050565b600080600083516041036109245760208401516040850151606086015160001a61091688828585610b1a565b955095509550505050610930565b50508151600091506002905b9250925092565b600082600381111561094b5761094b610e32565b03610954575050565b600182600381111561096857610968610e32565b036109865760405163f645eedf60e01b815260040160405180910390fd5b600282600381111561099a5761099a610e32565b036109bb5760405163fce698f760e01b8152600481018290526024016103e0565b60038260038111156109cf576109cf610e32565b0361052a576040516335e2f38360e21b8152600481018290526024016103e0565b6001600160a01b038316610a1b578060026000828254610a109190610e48565b90915550610a8d9050565b6001600160a01b03831660009081526020819052604090205481811015610a6e5760405163391434e360e21b81526001600160a01b038516600482015260248101829052604481018390526064016103e0565b6001600160a01b03841660009081526020819052604090209082900390555b6001600160a01b038216610aa957600280548290039055610ac8565b6001600160a01b03821660009081526020819052604090208054820190555b816001600160a01b0316836001600160a01b03167fddf252ad1be2c89b69c2b068fc378daa952ba7f163c4a11628f55a4df523b3ef83604051610b0d91815260200190565b60405180910390a3505050565b600080807f7fffffffffffffffffffffffffffffff5d576e7357a4501ddfe92f46681b20a0841115610b555750600091506003905082610bdf565b604080516000808252602082018084528a905260ff891692820192909252606081018790526080810186905260019060a0016020604051602081039080840390855afa158015610ba9573d6000803e3d6000fd5b5050604051601f1901519150506001600160a01b038116610bd557506000925060019150829050610bdf565b9250600091508190505b9450945094915050565b600060208083528351808285015260005b81811015610c1657858101830151858201604001528201610bfa565b506000604082860101526040601f19601f8301168501019250505092915050565b80356001600160a01b0381168114610c4e57600080fd5b919050565b60008060408385031215610c6657600080fd5b610c6f83610c37565b946020939093013593505050565b634e487b7160e01b600052604160045260246000fd5b60008060408385031215610ca657600080fd5b82359150602083013567ffffffffffffffff80821115610cc557600080fd5b818501915085601f830112610cd957600080fd5b813581811115610ceb57610ceb610c7d565b604051601f8201601f19908116603f01168101908382118183101715610d1357610d13610c7d565b81604052828152886020848701011115610d2c57600080fd5b8260208601602083013760006020848301015280955050505050509250929050565b600080600060608486031215610d6357600080fd5b610d6c84610c37565b9250610d7a60208501610c37565b9150604084013590509250925092565b600060208284031215610d9c57600080fd5b610da582610c37565b9392505050565b60008060408385031215610dbf57600080fd5b610dc883610c37565b9150610dd660208401610c37565b90509250929050565b600060208284031215610df157600080fd5b5035919050565b600181811c90821680610e0c57607f821691505b602082108103610e2c57634e487b7160e01b600052602260045260246000fd5b50919050565b634e487b7160e01b600052602160045260246000fd5b8082018082111561037957634e487b7160e01b600052601160045260246000fdfea2646970667358221220dff6192534c0f643dbd32e66b9bb9bc502af5cbbe208e84def794faeb56583d064736f6c63430008140033",
  "linkReferences": {},
  "deployedLinkReferences": {}
}